{
  "abi": [
    {
      "anonymous": false,
      "inputs": [
        {
          "indexed": true,
          "internalType": "uint256",
          "name": "rideId",
          "type": "uint256"
        },
        {
          "indexed": false,
          "internalType": "enum RideSharing.RideStatus",
          "name": "status",
          "type": "uint8"
        },
        {
          "indexed": true,
          "internalType": "address",
          "name": "user",
          "type": "address"
        }
      ],
      "name": "DebugRideStatus",
      "type": "event"
    },
    {
      "anonymous": false,
      "inputs": [
        {
          "indexed": true,
          "internalType": "uint256",
          "name": "rideId",
          "type": "uint256"
        },
        {
          "indexed": true,
          "internalType": "address",
          "name": "driver",
          "type": "address"
        },
        {
          "indexed": false,
          "internalType": "uint256",
          "name": "timestamp",
          "type": "uint256"
        }
      ],
      "name": "RideAccepted",
      "type": "event"
    },
    {
      "anonymous": false,
      "inputs": [
        {
          "indexed": true,
          "internalType": "uint256",
          "name": "rideId",
          "type": "uint256"
        },
        {
          "indexed": false,
          "internalType": "uint256",
          "name": "timestamp",
          "type": "uint256"
        }
      ],
      "name": "RideCancelled",
      "type": "event"
    },
    {
      "anonymous": false,
      "inputs": [
        {
          "indexed": true,
          "internalType": "uint256",
          "name": "rideId",
          "type": "uint256"
        },
        {
          "indexed": false,
          "internalType": "uint256",
          "name": "timestamp",
          "type": "uint256"
        }
      ],
      "name": "RideCompleted",
      "type": "event"
    },
    {
      "anonymous": false,
      "inputs": [
        {
          "indexed": true,
          "internalType": "uint256",
          "name": "rideId",
          "type": "uint256"
        },
        {
          "indexed": true,
          "internalType": "address",
          "name": "passenger",
          "type": "address"
        },
        {
          "indexed": true,
          "internalType": "address",
          "name": "driver",
          "type": "address"
        },
        {
          "indexed": false,
          "internalType": "uint256",
          "name": "distance",
          "type": "uint256"
        },
        {
          "indexed": false,
          "internalType": "uint256",
          "name": "fare",
          "type": "uint256"
        }
      ],
      "name": "RideRequested",
      "type": "event"
    },
    {
      "inputs": [
        {
          "internalType": "uint256",
          "name": "rideId",
          "type": "uint256"
        }
      ],
      "name": "acceptRide",
      "outputs": [],
      "stateMutability": "nonpayable",
      "type": "function"
    },
    {
      "inputs": [
        {
          "internalType": "uint256",
          "name": "rideId",
          "type": "uint256"
        }
      ],
      "name": "cancelRide",
      "outputs": [],
      "stateMutability": "nonpayable",
      "type": "function"
    },
    {
      "inputs": [
        {
          "internalType": "uint256",
          "name": "rideId",
          "type": "uint256"
        }
      ],
      "name": "completeRide",
      "outputs": [],
      "stateMutability": "nonpayable",
      "type": "function"
    },
    {
      "inputs": [],
      "name": "getAvailableRides",
      "outputs": [
        {
          "internalType": "uint256[]",
          "name": "",
          "type": "uint256[]"
        }
      ],
      "stateMutability": "view",
      "type": "function"
    },
    {
      "inputs": [
        {
          "internalType": "uint256",
          "name": "rideId",
          "type": "uint256"
        }
      ],
      "name": "getRide",
      "outputs": [
        {
          "internalType": "address",
          "name": "passenger",
          "type": "address"
        },
        {
          "internalType": "address",
          "name": "driver",
          "type": "address"
        },
        {
          "internalType": "uint256",
          "name": "distance",
          "type": "uint256"
        },
        {
          "internalType": "enum RideSharing.RideStatus",
          "name": "status",
          "type": "uint8"
        },
        {
          "internalType": "uint256",
          "name": "fare",
          "type": "uint256"
        }
      ],
      "stateMutability": "view",
      "type": "function"
    },
    {
      "inputs": [
        {
          "internalType": "address",
          "name": "user",
          "type": "address"
        }
      ],
      "name": "getUserActiveRides",
      "outputs": [
        {
          "internalType": "uint256[]",
          "name": "",
          "type": "uint256[]"
        }
      ],
      "stateMutability": "view",
      "type": "function"
    },
    {
      "inputs": [
        {
          "internalType": "address",
          "name": "user",
          "type": "address"
        }
      ],
      "name": "getUserCompletedRides",
      "outputs": [
        {
          "internalType": "uint256[]",
          "name": "",
          "type": "uint256[]"
        }
      ],
      "stateMutability": "view",
      "type": "function"
    },
    {
      "inputs": [
        {
          "internalType": "uint256",
          "name": "distance",
          "type": "uint256"
        }
      ],
      "name": "requestRide",
      "outputs": [
        {
          "internalType": "uint256",
          "name": "",
          "type": "uint256"
        }
      ],
      "stateMutability": "payable",
      "type": "function"
    },
    {
      "inputs": [],
      "name": "rideCount",
      "outputs": [
        {
          "internalType": "uint256",
          "name": "",
          "type": "uint256"
        }
      ],
      "stateMutability": "view",
      "type": "function"
    },
    {
      "inputs": [
        {
          "internalType": "uint256",
          "name": "",
          "type": "uint256"
        }
      ],
      "name": "rides",
      "outputs": [
        {
          "internalType": "address",
          "name": "passenger",
          "type": "address"
        },
        {
          "internalType": "address",
          "name": "driver",
          "type": "address"
        },
        {
          "internalType": "uint256",
          "name": "distance",
          "type": "uint256"
        },
        {
          "internalType": "uint256",
          "name": "fare",
          "type": "uint256"
        },
        {
          "internalType": "bool",
          "name": "completed",
          "type": "bool"
        },
        {
          "internalType": "enum RideSharing.RideStatus",
          "name": "status",
          "type": "uint8"
        }
      ],
      "stateMutability": "view",
      "type": "function"
    },
    {
      "stateMutability": "payable",
      "type": "receive"
    }
  ],
  "bytecode": "6080604052348015600f57600080fd5b506110188061001f6000396000f3fe6080604052600436106100955760003560e01c8063a9cbcb2311610059578063a9cbcb23146101ff578063b47c188314610214578063c416dd0b1461022a578063c51562cb1461024a578063f10218571461026a57600080fd5b806342f67588146100a15780635205f112146100d75780637c7b0ff41461014b5780639327b077146101bc578063a6f07b29146101dd57600080fd5b3661009c57005b600080fd5b3480156100ad57600080fd5b506100c16100bc366004610e49565b61028a565b6040516100ce9190610e79565b60405180910390f35b3480156100e357600080fd5b506101396100f2366004610ebc565b600060208190529081526040902080546001820154600283015460038401546004909401546001600160a01b03938416949390921692909160ff8082169161010090041686565b6040516100ce96959493929190610f0d565b34801561015757600080fd5b506101ab610166366004610ebc565b600090815260208190526040902080546001820154600283015460048401546003909401546001600160a01b03938416959390921693909261010090910460ff169190565b6040516100ce959493929190610f53565b6101cf6101ca366004610ebc565b61045c565b6040519081526020016100ce565b3480156101e957600080fd5b506101fd6101f8366004610ebc565b61062d565b005b34801561020b57600080fd5b506100c161078e565b34801561022057600080fd5b506101cf60015481565b34801561023657600080fd5b506101fd610245366004610ebc565b610913565b34801561025657600080fd5b506101fd610265366004610ebc565b610ab3565b34801561027657600080fd5b506100c1610285366004610e49565b610c80565b6060600060015467ffffffffffffffff8111156102a9576102a9610f8f565b6040519080825280602002602001820160405280156102d2578160200160208202803683370190505b509050600060015b60015481116103c1576000818152602081905260409020546001600160a01b03161580159061034857506000818152602081905260409020546001600160a01b038681169116148061034857506000818152602081905260409020600101546001600160a01b038681169116145b801561037e57506001600082815260208190526040902060040154610100900460ff16600381111561037c5761037c610ed5565b145b156103af578083838151811061039657610396610fa5565b6020908102919091010152816103ab81610fbb565b9250505b806103b981610fbb565b9150506102da565b5060008167ffffffffffffffff8111156103dd576103dd610f8f565b604051908082528060200260200182016040528015610406578160200160208202803683370190505b50905060005b828110156104535783818151811061042657610426610fa5565b602002602001015182828151811061044057610440610fa5565b602090810291909101015260010161040c565b50949350505050565b60008034116104b25760405162461bcd60e51b815260206004820152601b60248201527f46617265206d7573742062652067726561746572207468616e2030000000000060448201526064015b60405180910390fd5b600082116105025760405162461bcd60e51b815260206004820152601f60248201527f44697374616e6365206d7573742062652067726561746572207468616e20300060448201526064016104a9565b6001805490600061051283610fbb565b90915550506040805160c0810182523381526000602080830182815283850187815234606086019081526080860185815260a087018681526001805488529587905297909520865181546001600160a01b03199081166001600160a01b039283161783559451958201805490951695169490941790925551600283015551600380830191909155915160048201805460ff198116921515928317825595519495929493909261ffff191661ff001990921691909117906101009084908111156105dd576105dd610ed5565b02179055505060015460408051858152346020820152600093503392917fe09aa379f15bc62a258da69b77153d1f5f5c28f544e8f97476c7d871f2c63a92910160405180910390a4505060015490565b600081815260208190526040902080546001600160a01b031633146106945760405162461bcd60e51b815260206004820152601960248201527f4f6e6c792070617373656e6765722063616e2063616e63656c0000000000000060448201526064016104a9565b60006004820154610100900460ff1660038111156106b4576106b4610ed5565b146107015760405162461bcd60e51b815260206004820152601f60248201527f43616e206f6e6c792063616e63656c207265717565737465642072696465730060448201526064016104a9565b60048101805461ff001916610300179055805460038201546040516001600160a01b039092169181156108fc0291906000818181858888f1935050505015801561074f573d6000803e3d6000fd5b50817f122ec9117631988058d7593682e1e373e7a97ee87970e8457da6b2a59f31fcd54260405161078291815260200190565b60405180910390a25050565b6060600060015467ffffffffffffffff8111156107ad576107ad610f8f565b6040519080825280602002602001820160405280156107d6578160200160208202803683370190505b509050600060015b6001548111610879576000818152602081905260409020546001600160a01b031615801590610836575060008082815260208190526040902060040154610100900460ff16600381111561083457610834610ed5565b145b15610867578083838151811061084e5761084e610fa5565b60209081029190910101528161086381610fbb565b9250505b8061087181610fbb565b9150506107de565b5060008167ffffffffffffffff81111561089557610895610f8f565b6040519080825280602002602001820160405280156108be578160200160208202803683370190505b50905060005b8281101561090b578381815181106108de576108de610fa5565b60200260200101518282815181106108f8576108f8610fa5565b60209081029190910101526001016108c4565b509392505050565b600081815260208190526040902060018101546001600160a01b0316331461097d5760405162461bcd60e51b815260206004820152601d60248201527f4f6e6c79206472697665722063616e20636f6d706c657465207269646500000060448201526064016104a9565b60016004820154610100900460ff16600381111561099d5761099d610ed5565b146109e15760405162461bcd60e51b815260206004820152601460248201527352696465206e6f7420696e2070726f677265737360601b60448201526064016104a9565b600481015460ff1615610a2f5760405162461bcd60e51b8152602060048201526016602482015275149a591948185b1c9958591e4818dbdb5c1b195d195960521b60448201526064016104a9565b60048101805461ffff1916610201179055600181015460038201546040516001600160a01b039092169181156108fc0291906000818181858888f19350505050158015610a80573d6000803e3d6000fd5b50817ff304fdf4ab42d89945d17e18acbb7ceb5bd172be70a8ff8c9f055579a4eda1014260405161078291815260200190565b600081815260208190526040902080546001600160a01b0316610b0e5760405162461bcd60e51b8152602060048201526013602482015272149a591948191bd95cc81b9bdd08195e1a5cdd606a1b60448201526064016104a9565b60006004820154610100900460ff166003811115610b2e57610b2e610ed5565b14610b705760405162461bcd60e51b815260206004820152601260248201527152696465206e6f7420617661696c61626c6560701b60448201526064016104a9565b60018101546001600160a01b031615610bc35760405162461bcd60e51b8152602060048201526015602482015274149a591948185b1c9958591e48185cdcda59db9959605a1b60448201526064016104a9565b80546001600160a01b03163303610c1c5760405162461bcd60e51b815260206004820152601a60248201527f50617373656e6765722063616e6e6f742062652064726976657200000000000060448201526064016104a9565b600180820180546001600160a01b0319163317905560048201805461ff001916610100830217905550604051428152339083907f44d2438f8c7773102e178fde6e6e3f82515d4f80c38c5a1e5f36bcb01f6322f19060200160405180910390a35050565b6060600060015467ffffffffffffffff811115610c9f57610c9f610f8f565b604051908082528060200260200182016040528015610cc8578160200160208202803683370190505b509050600060015b6001548111610db7576000818152602081905260409020546001600160a01b031615801590610d3e57506000818152602081905260409020546001600160a01b0386811691161480610d3e57506000818152602081905260409020600101546001600160a01b038681169116145b8015610d7457506002600082815260208190526040902060040154610100900460ff166003811115610d7257610d72610ed5565b145b15610da55780838381518110610d8c57610d8c610fa5565b602090810291909101015281610da181610fbb565b9250505b80610daf81610fbb565b915050610cd0565b5060008167ffffffffffffffff811115610dd357610dd3610f8f565b604051908082528060200260200182016040528015610dfc578160200160208202803683370190505b50905060005b8281101561045357838181518110610e1c57610e1c610fa5565b6020026020010151828281518110610e3657610e36610fa5565b6020908102919091010152600101610e02565b600060208284031215610e5b57600080fd5b81356001600160a01b0381168114610e7257600080fd5b9392505050565b602080825282518282018190526000918401906040840190835b81811015610eb1578351835260209384019390920191600101610e93565b509095945050505050565b600060208284031215610ece57600080fd5b5035919050565b634e487b7160e01b600052602160045260246000fd5b60048110610f0957634e487b7160e01b600052602160045260246000fd5b9052565b6001600160a01b038781168252861660208201526040810185905260608101849052821515608082015260c08101610f4860a0830184610eeb565b979650505050505050565b6001600160a01b038681168252851660208201526040810184905260a08101610f7f6060830185610eeb565b8260808301529695505050505050565b634e487b7160e01b600052604160045260246000fd5b634e487b7160e01b600052603260045260246000fd5b600060018201610fdb57634e487b7160e01b600052601160045260246000fd5b506001019056fea2646970667358221220d66d89a10d6178155665b96294f0966f0f3ff2d3837704c4423fd5c83c021f6864736f6c634300081c0033",
  "bytecodeSha1": "f34608dbf13ea451adfc388b74e8d709edb36274",
  "compiler": {
    "evm_version": "istanbul",
    "optimizer": {
      "enabled": true,
      "runs": 200
    },
    "version": "0.8.28+commit.7893614a"
  },
  "contractName": "RideSharing",
  "language": "Solidity",
  "natspec": {
    "kind": "dev",
    "methods": {},
    "version": 1
  },
  "opcodes": "PUSH1 0x80 PUSH1 0x40 MSTORE PUSH1 0x4 CALLDATASIZE LT PUSH2 0x95 JUMPI PUSH1 0x0 CALLDATALOAD PUSH1 0xE0 SHR DUP1 PUSH4 0xA9CBCB23 GT PUSH2 0x59 JUMPI DUP1 PUSH4 0xA9CBCB23 EQ PUSH2 0x1FF JUMPI DUP1 PUSH4 0xB47C1883 EQ PUSH2 0x214 JUMPI DUP1 PUSH4 0xC416DD0B EQ PUSH2 0x22A JUMPI DUP1 PUSH4 0xC51562CB EQ PUSH2 0x24A JUMPI DUP1 PUSH4 0xF1021857 EQ PUSH2 0x26A JUMPI PUSH1 0x0 DUP1 REVERT JUMPDEST DUP1 PUSH4 0x42F67588 EQ PUSH2 0xA1 JUMPI DUP1 PUSH4 0x5205F112 EQ PUSH2 0xD7 JUMPI DUP1 PUSH4 0x7C7B0FF4 EQ PUSH2 0x14B JUMPI DUP1 PUSH4 0x9327B077 EQ PUSH2 0x1BC JUMPI DUP1 PUSH4 0xA6F07B29 EQ PUSH2 0x1DD JUMPI PUSH1 0x0 DUP1 REVERT JUMPDEST CALLDATASIZE PUSH2 0x9C JUMPI STOP JUMPDEST PUSH1 0x0 DUP1 REVERT JUMPDEST CALLVALUE DUP1 ISZERO PUSH2 0xAD JUMPI PUSH1 0x0 DUP1 REVERT JUMPDEST POP PUSH2 0xC1 PUSH2 0xBC CALLDATASIZE PUSH1 0x4 PUSH2 0xE49 JUMP JUMPDEST PUSH2 0x28A JUMP JUMPDEST PUSH1 0x40 MLOAD PUSH2 0xCE SWAP2 SWAP1 PUSH2 0xE79 JUMP JUMPDEST PUSH1 0x40 MLOAD DUP1 SWAP2 SUB SWAP1 RETURN JUMPDEST CALLVALUE DUP1 ISZERO PUSH2 0xE3 JUMPI PUSH1 0x0 DUP1 REVERT JUMPDEST POP PUSH2 0x139 PUSH2 0xF2 CALLDATASIZE PUSH1 0x4 PUSH2 0xEBC JUMP JUMPDEST PUSH1 0x0 PUSH1 0x20 DUP2 SWAP1 MSTORE SWAP1 DUP2 MSTORE PUSH1 0x40 SWAP1 KECCAK256 DUP1 SLOAD PUSH1 0x1 DUP3 ADD SLOAD PUSH1 0x2 DUP4 ADD SLOAD PUSH1 0x3 DUP5 ADD SLOAD PUSH1 0x4 SWAP1 SWAP5 ADD SLOAD PUSH1 0x1 PUSH1 0x1 PUSH1 0xA0 SHL SUB SWAP4 DUP5 AND SWAP5 SWAP4 SWAP1 SWAP3 AND SWAP3 SWAP1 SWAP2 PUSH1 0xFF DUP1 DUP3 AND SWAP2 PUSH2 0x100 SWAP1 DIV AND DUP7 JUMP JUMPDEST PUSH1 0x40 MLOAD PUSH2 0xCE SWAP7 SWAP6 SWAP5 SWAP4 SWAP3 SWAP2 SWAP1 PUSH2 0xF0D JUMP JUMPDEST CALLVALUE DUP1 ISZERO PUSH2 0x157 JUMPI PUSH1 0x0 DUP1 REVERT JUMPDEST POP PUSH2 0x1AB PUSH2 0x166 CALLDATASIZE PUSH1 0x4 PUSH2 0xEBC JUMP JUMPDEST PUSH1 0x0 SWAP1 DUP2 MSTORE PUSH1 0x20 DUP2 SWAP1 MSTORE PUSH1 0x40 SWAP1 KECCAK256 DUP1 SLOAD PUSH1 0x1 DUP3 ADD SLOAD PUSH1 0x2 DUP4 ADD SLOAD PUSH1 0x4 DUP5 ADD SLOAD PUSH1 0x3 SWAP1 SWAP5 ADD SLOAD PUSH1 0x1 PUSH1 0x1 PUSH1 0xA0 SHL SUB SWAP4 DUP5 AND SWAP6 SWAP4 SWAP1 SWAP3 AND SWAP4 SWAP1 SWAP3 PUSH2 0x100 SWAP1 SWAP2 DIV PUSH1 0xFF AND SWAP2 SWAP1 JUMP JUMPDEST PUSH1 0x40 MLOAD PUSH2 0xCE SWAP6 SWAP5 SWAP4 SWAP3 SWAP2 SWAP1 PUSH2 0xF53 JUMP JUMPDEST PUSH2 0x1CF PUSH2 0x1CA CALLDATASIZE PUSH1 0x4 PUSH2 0xEBC JUMP JUMPDEST PUSH2 0x45C JUMP JUMPDEST PUSH1 0x40 MLOAD SWAP1 DUP2 MSTORE PUSH1 0x20 ADD PUSH2 0xCE JUMP JUMPDEST CALLVALUE DUP1 ISZERO PUSH2 0x1E9 JUMPI PUSH1 0x0 DUP1 REVERT JUMPDEST POP PUSH2 0x1FD PUSH2 0x1F8 CALLDATASIZE PUSH1 0x4 PUSH2 0xEBC JUMP JUMPDEST PUSH2 0x62D JUMP JUMPDEST STOP JUMPDEST CALLVALUE DUP1 ISZERO PUSH2 0x20B JUMPI PUSH1 0x0 DUP1 REVERT JUMPDEST POP PUSH2 0xC1 PUSH2 0x78E JUMP JUMPDEST CALLVALUE DUP1 ISZERO PUSH2 0x220 JUMPI PUSH1 0x0 DUP1 REVERT JUMPDEST POP PUSH2 0x1CF PUSH1 0x1 SLOAD DUP2 JUMP JUMPDEST CALLVALUE DUP1 ISZERO PUSH2 0x236 JUMPI PUSH1 0x0 DUP1 REVERT JUMPDEST POP PUSH2 0x1FD PUSH2 0x245 CALLDATASIZE PUSH1 0x4 PUSH2 0xEBC JUMP JUMPDEST PUSH2 0x913 JUMP JUMPDEST CALLVALUE DUP1 ISZERO PUSH2 0x256 JUMPI PUSH1 0x0 DUP1 REVERT JUMPDEST POP PUSH2 0x1FD PUSH2 0x265 CALLDATASIZE PUSH1 0x4 PUSH2 0xEBC JUMP JUMPDEST PUSH2 0xAB3 JUMP JUMPDEST CALLVALUE DUP1 ISZERO PUSH2 0x276 JUMPI PUSH1 0x0 DUP1 REVERT JUMPDEST POP PUSH2 0xC1 PUSH2 0x285 CALLDATASIZE PUSH1 0x4 PUSH2 0xE49 JUMP JUMPDEST PUSH2 0xC80 JUMP JUMPDEST PUSH1 0x60 PUSH1 0x0 PUSH1 0x1 SLOAD PUSH8 0xFFFFFFFFFFFFFFFF DUP2 GT ISZERO PUSH2 0x2A9 JUMPI PUSH2 0x2A9 PUSH2 0xF8F JUMP JUMPDEST PUSH1 0x40 MLOAD SWAP1 DUP1 DUP3 MSTORE DUP1 PUSH1 0x20 MUL PUSH1 0x20 ADD DUP3 ADD PUSH1 0x40 MSTORE DUP1 ISZERO PUSH2 0x2D2 JUMPI DUP2 PUSH1 0x20 ADD PUSH1 0x20 DUP3 MUL DUP1 CALLDATASIZE DUP4 CALLDATACOPY ADD SWAP1 POP JUMPDEST POP SWAP1 POP PUSH1 0x0 PUSH1 0x1 JUMPDEST PUSH1 0x1 SLOAD DUP2 GT PUSH2 0x3C1 JUMPI PUSH1 0x0 DUP2 DUP2 MSTORE PUSH1 0x20 DUP2 SWAP1 MSTORE PUSH1 0x40 SWAP1 KECCAK256 SLOAD PUSH1 0x1 PUSH1 0x1 PUSH1 0xA0 SHL SUB AND ISZERO DUP1 ISZERO SWAP1 PUSH2 0x348 JUMPI POP PUSH1 0x0 DUP2 DUP2 MSTORE PUSH1 0x20 DUP2 SWAP1 MSTORE PUSH1 0x40 SWAP1 KECCAK256 SLOAD PUSH1 0x1 PUSH1 0x1 PUSH1 0xA0 SHL SUB DUP7 DUP2 AND SWAP2 AND EQ DUP1 PUSH2 0x348 JUMPI POP PUSH1 0x0 DUP2 DUP2 MSTORE PUSH1 0x20 DUP2 SWAP1 MSTORE PUSH1 0x40 SWAP1 KECCAK256 PUSH1 0x1 ADD SLOAD PUSH1 0x1 PUSH1 0x1 PUSH1 0xA0 SHL SUB DUP7 DUP2 AND SWAP2 AND EQ JUMPDEST DUP1 ISZERO PUSH2 0x37E JUMPI POP PUSH1 0x1 PUSH1 0x0 DUP3 DUP2 MSTORE PUSH1 0x20 DUP2 SWAP1 MSTORE PUSH1 0x40 SWAP1 KECCAK256 PUSH1 0x4 ADD SLOAD PUSH2 0x100 SWAP1 DIV PUSH1 0xFF AND PUSH1 0x3 DUP2 GT ISZERO PUSH2 0x37C JUMPI PUSH2 0x37C PUSH2 0xED5 JUMP JUMPDEST EQ JUMPDEST ISZERO PUSH2 0x3AF JUMPI DUP1 DUP4 DUP4 DUP2 MLOAD DUP2 LT PUSH2 0x396 JUMPI PUSH2 0x396 PUSH2 0xFA5 JUMP JUMPDEST PUSH1 0x20 SWAP1 DUP2 MUL SWAP2 SWAP1 SWAP2 ADD ADD MSTORE DUP2 PUSH2 0x3AB DUP2 PUSH2 0xFBB JUMP JUMPDEST SWAP3 POP POP JUMPDEST DUP1 PUSH2 0x3B9 DUP2 PUSH2 0xFBB JUMP JUMPDEST SWAP2 POP POP PUSH2 0x2DA JUMP JUMPDEST POP PUSH1 0x0 DUP2 PUSH8 0xFFFFFFFFFFFFFFFF DUP2 GT ISZERO PUSH2 0x3DD JUMPI PUSH2 0x3DD PUSH2 0xF8F JUMP JUMPDEST PUSH1 0x40 MLOAD SWAP1 DUP1 DUP3 MSTORE DUP1 PUSH1 0x20 MUL PUSH1 0x20 ADD DUP3 ADD PUSH1 0x40 MSTORE DUP1 ISZERO PUSH2 0x406 JUMPI DUP2 PUSH1 0x20 ADD PUSH1 0x20 DUP3 MUL DUP1 CALLDATASIZE DUP4 CALLDATACOPY ADD SWAP1 POP JUMPDEST POP SWAP1 POP PUSH1 0x0 JUMPDEST DUP3 DUP2 LT ISZERO PUSH2 0x453 JUMPI DUP4 DUP2 DUP2 MLOAD DUP2 LT PUSH2 0x426 JUMPI PUSH2 0x426 PUSH2 0xFA5 JUMP JUMPDEST PUSH1 0x20 MUL PUSH1 0x20 ADD ADD MLOAD DUP3 DUP3 DUP2 MLOAD DUP2 LT PUSH2 0x440 JUMPI PUSH2 0x440 PUSH2 0xFA5 JUMP JUMPDEST PUSH1 0x20 SWAP1 DUP2 MUL SWAP2 SWAP1 SWAP2 ADD ADD MSTORE PUSH1 0x1 ADD PUSH2 0x40C JUMP JUMPDEST POP SWAP5 SWAP4 POP POP POP POP JUMP JUMPDEST PUSH1 0x0 DUP1 CALLVALUE GT PUSH2 0x4B2 JUMPI PUSH1 0x40 MLOAD PUSH3 0x461BCD PUSH1 0xE5 SHL DUP2 MSTORE PUSH1 0x20 PUSH1 0x4 DUP3 ADD MSTORE PUSH1 0x1B PUSH1 0x24 DUP3 ADD MSTORE PUSH32 0x46617265206D7573742062652067726561746572207468616E20300000000000 PUSH1 0x44 DUP3 ADD MSTORE PUSH1 0x64 ADD JUMPDEST PUSH1 0x40 MLOAD DUP1 SWAP2 SUB SWAP1 REVERT JUMPDEST PUSH1 0x0 DUP3 GT PUSH2 0x502 JUMPI PUSH1 0x40 MLOAD PUSH3 0x461BCD PUSH1 0xE5 SHL DUP2 MSTORE PUSH1 0x20 PUSH1 0x4 DUP3 ADD MSTORE PUSH1 0x1F PUSH1 0x24 DUP3 ADD MSTORE PUSH32 0x44697374616E6365206D7573742062652067726561746572207468616E203000 PUSH1 0x44 DUP3 ADD MSTORE PUSH1 0x64 ADD PUSH2 0x4A9 JUMP JUMPDEST PUSH1 0x1 DUP1 SLOAD SWAP1 PUSH1 0x0 PUSH2 0x512 DUP4 PUSH2 0xFBB JUMP JUMPDEST SWAP1 SWAP2 SSTORE POP POP PUSH1 0x40 DUP1 MLOAD PUSH1 0xC0 DUP2 ADD DUP3 MSTORE CALLER DUP2 MSTORE PUSH1 0x0 PUSH1 0x20 DUP1 DUP4 ADD DUP3 DUP2 MSTORE DUP4 DUP6 ADD DUP8 DUP2 MSTORE CALLVALUE PUSH1 0x60 DUP7 ADD SWAP1 DUP2 MSTORE PUSH1 0x80 DUP7 ADD DUP6 DUP2 MSTORE PUSH1 0xA0 DUP8 ADD DUP7 DUP2 MSTORE PUSH1 0x1 DUP1 SLOAD DUP9 MSTORE SWAP6 DUP8 SWAP1 MSTORE SWAP8 SWAP1 SWAP6 KECCAK256 DUP7 MLOAD DUP2 SLOAD PUSH1 0x1 PUSH1 0x1 PUSH1 0xA0 SHL SUB NOT SWAP1 DUP2 AND PUSH1 0x1 PUSH1 0x1 PUSH1 0xA0 SHL SUB SWAP3 DUP4 AND OR DUP4 SSTORE SWAP5 MLOAD SWAP6 DUP3 ADD DUP1 SLOAD SWAP1 SWAP6 AND SWAP6 AND SWAP5 SWAP1 SWAP5 OR SWAP1 SWAP3 SSTORE MLOAD PUSH1 0x2 DUP4 ADD SSTORE MLOAD PUSH1 0x3 DUP1 DUP4 ADD SWAP2 SWAP1 SWAP2 SSTORE SWAP2 MLOAD PUSH1 0x4 DUP3 ADD DUP1 SLOAD PUSH1 0xFF NOT DUP2 AND SWAP3 ISZERO ISZERO SWAP3 DUP4 OR DUP3 SSTORE SWAP6 MLOAD SWAP5 SWAP6 SWAP3 SWAP5 SWAP4 SWAP1 SWAP3 PUSH2 0xFFFF NOT AND PUSH2 0xFF00 NOT SWAP1 SWAP3 AND SWAP2 SWAP1 SWAP2 OR SWAP1 PUSH2 0x100 SWAP1 DUP5 SWAP1 DUP2 GT ISZERO PUSH2 0x5DD JUMPI PUSH2 0x5DD PUSH2 0xED5 JUMP JUMPDEST MUL OR SWAP1 SSTORE POP POP PUSH1 0x1 SLOAD PUSH1 0x40 DUP1 MLOAD DUP6 DUP2 MSTORE CALLVALUE PUSH1 0x20 DUP3 ADD MSTORE PUSH1 0x0 SWAP4 POP CALLER SWAP3 SWAP2 PUSH32 0xE09AA379F15BC62A258DA69B77153D1F5F5C28F544E8F97476C7D871F2C63A92 SWAP2 ADD PUSH1 0x40 MLOAD DUP1 SWAP2 SUB SWAP1 LOG4 POP POP PUSH1 0x1 SLOAD SWAP1 JUMP JUMPDEST PUSH1 0x0 DUP2 DUP2 MSTORE PUSH1 0x20 DUP2 SWAP1 MSTORE PUSH1 0x40 SWAP1 KECCAK256 DUP1 SLOAD PUSH1 0x1 PUSH1 0x1 PUSH1 0xA0 SHL SUB AND CALLER EQ PUSH2 0x694 JUMPI PUSH1 0x40 MLOAD PUSH3 0x461BCD PUSH1 0xE5 SHL DUP2 MSTORE PUSH1 0x20 PUSH1 0x4 DUP3 ADD MSTORE PUSH1 0x19 PUSH1 0x24 DUP3 ADD MSTORE PUSH32 0x4F6E6C792070617373656E6765722063616E2063616E63656C00000000000000 PUSH1 0x44 DUP3 ADD MSTORE PUSH1 0x64 ADD PUSH2 0x4A9 JUMP JUMPDEST PUSH1 0x0 PUSH1 0x4 DUP3 ADD SLOAD PUSH2 0x100 SWAP1 DIV PUSH1 0xFF AND PUSH1 0x3 DUP2 GT ISZERO PUSH2 0x6B4 JUMPI PUSH2 0x6B4 PUSH2 0xED5 JUMP JUMPDEST EQ PUSH2 0x701 JUMPI PUSH1 0x40 MLOAD PUSH3 0x461BCD PUSH1 0xE5 SHL DUP2 MSTORE PUSH1 0x20 PUSH1 0x4 DUP3 ADD MSTORE PUSH1 0x1F PUSH1 0x24 DUP3 ADD MSTORE PUSH32 0x43616E206F6E6C792063616E63656C2072657175657374656420726964657300 PUSH1 0x44 DUP3 ADD MSTORE PUSH1 0x64 ADD PUSH2 0x4A9 JUMP JUMPDEST PUSH1 0x4 DUP2 ADD DUP1 SLOAD PUSH2 0xFF00 NOT AND PUSH2 0x300 OR SWAP1 SSTORE DUP1 SLOAD PUSH1 0x3 DUP3 ADD SLOAD PUSH1 0x40 MLOAD PUSH1 0x1 PUSH1 0x1 PUSH1 0xA0 SHL SUB SWAP1 SWAP3 AND SWAP2 DUP2 ISZERO PUSH2 0x8FC MUL SWAP2 SWAP1 PUSH1 0x0 DUP2 DUP2 DUP2 DUP6 DUP9 DUP9 CALL SWAP4 POP POP POP POP ISZERO DUP1 ISZERO PUSH2 0x74F JUMPI RETURNDATASIZE PUSH1 0x0 DUP1 RETURNDATACOPY RETURNDATASIZE PUSH1 0x0 REVERT JUMPDEST POP DUP2 PUSH32 0x122EC9117631988058D7593682E1E373E7A97EE87970E8457DA6B2A59F31FCD5 TIMESTAMP PUSH1 0x40 MLOAD PUSH2 0x782 SWAP2 DUP2 MSTORE PUSH1 0x20 ADD SWAP1 JUMP JUMPDEST PUSH1 0x40 MLOAD DUP1 SWAP2 SUB SWAP1 LOG2 POP POP JUMP JUMPDEST PUSH1 0x60 PUSH1 0x0 PUSH1 0x1 SLOAD PUSH8 0xFFFFFFFFFFFFFFFF DUP2 GT ISZERO PUSH2 0x7AD JUMPI PUSH2 0x7AD PUSH2 0xF8F JUMP JUMPDEST PUSH1 0x40 MLOAD SWAP1 DUP1 DUP3 MSTORE DUP1 PUSH1 0x20 MUL PUSH1 0x20 ADD DUP3 ADD PUSH1 0x40 MSTORE DUP1 ISZERO PUSH2 0x7D6 JUMPI DUP2 PUSH1 0x20 ADD PUSH1 0x20 DUP3 MUL DUP1 CALLDATASIZE DUP4 CALLDATACOPY ADD SWAP1 POP JUMPDEST POP SWAP1 POP PUSH1 0x0 PUSH1 0x1 JUMPDEST PUSH1 0x1 SLOAD DUP2 GT PUSH2 0x879 JUMPI PUSH1 0x0 DUP2 DUP2 MSTORE PUSH1 0x20 DUP2 SWAP1 MSTORE PUSH1 0x40 SWAP1 KECCAK256 SLOAD PUSH1 0x1 PUSH1 0x1 PUSH1 0xA0 SHL SUB AND ISZERO DUP1 ISZERO SWAP1 PUSH2 0x836 JUMPI POP PUSH1 0x0 DUP1 DUP3 DUP2 MSTORE PUSH1 0x20 DUP2 SWAP1 MSTORE PUSH1 0x40 SWAP1 KECCAK256 PUSH1 0x4 ADD SLOAD PUSH2 0x100 SWAP1 DIV PUSH1 0xFF AND PUSH1 0x3 DUP2 GT ISZERO PUSH2 0x834 JUMPI PUSH2 0x834 PUSH2 0xED5 JUMP JUMPDEST EQ JUMPDEST ISZERO PUSH2 0x867 JUMPI DUP1 DUP4 DUP4 DUP2 MLOAD DUP2 LT PUSH2 0x84E JUMPI PUSH2 0x84E PUSH2 0xFA5 JUMP JUMPDEST PUSH1 0x20 SWAP1 DUP2 MUL SWAP2 SWAP1 SWAP2 ADD ADD MSTORE DUP2 PUSH2 0x863 DUP2 PUSH2 0xFBB JUMP JUMPDEST SWAP3 POP POP JUMPDEST DUP1 PUSH2 0x871 DUP2 PUSH2 0xFBB JUMP JUMPDEST SWAP2 POP POP PUSH2 0x7DE JUMP JUMPDEST POP PUSH1 0x0 DUP2 PUSH8 0xFFFFFFFFFFFFFFFF DUP2 GT ISZERO PUSH2 0x895 JUMPI PUSH2 0x895 PUSH2 0xF8F JUMP JUMPDEST PUSH1 0x40 MLOAD SWAP1 DUP1 DUP3 MSTORE DUP1 PUSH1 0x20 MUL PUSH1 0x20 ADD DUP3 ADD PUSH1 0x40 MSTORE DUP1 ISZERO PUSH2 0x8BE JUMPI DUP2 PUSH1 0x20 ADD PUSH1 0x20 DUP3 MUL DUP1 CALLDATASIZE DUP4 CALLDATACOPY ADD SWAP1 POP JUMPDEST POP SWAP1 POP PUSH1 0x0 JUMPDEST DUP3 DUP2 LT ISZERO PUSH2 0x90B JUMPI DUP4 DUP2 DUP2 MLOAD DUP2 LT PUSH2 0x8DE JUMPI PUSH2 0x8DE PUSH2 0xFA5 JUMP JUMPDEST PUSH1 0x20 MUL PUSH1 0x20 ADD ADD MLOAD DUP3 DUP3 DUP2 MLOAD DUP2 LT PUSH2 0x8F8 JUMPI PUSH2 0x8F8 PUSH2 0xFA5 JUMP JUMPDEST PUSH1 0x20 SWAP1 DUP2 MUL SWAP2 SWAP1 SWAP2 ADD ADD MSTORE PUSH1 0x1 ADD PUSH2 0x8C4 JUMP JUMPDEST POP SWAP4 SWAP3 POP POP POP JUMP JUMPDEST PUSH1 0x0 DUP2 DUP2 MSTORE PUSH1 0x20 DUP2 SWAP1 MSTORE PUSH1 0x40 SWAP1 KECCAK256 PUSH1 0x1 DUP2 ADD SLOAD PUSH1 0x1 PUSH1 0x1 PUSH1 0xA0 SHL SUB AND CALLER EQ PUSH2 0x97D JUMPI PUSH1 0x40 MLOAD PUSH3 0x461BCD PUSH1 0xE5 SHL DUP2 MSTORE PUSH1 0x20 PUSH1 0x4 DUP3 ADD MSTORE PUSH1 0x1D PUSH1 0x24 DUP3 ADD MSTORE PUSH32 0x4F6E6C79206472697665722063616E20636F6D706C6574652072696465000000 PUSH1 0x44 DUP3 ADD MSTORE PUSH1 0x64 ADD PUSH2 0x4A9 JUMP JUMPDEST PUSH1 0x1 PUSH1 0x4 DUP3 ADD SLOAD PUSH2 0x100 SWAP1 DIV PUSH1 0xFF AND PUSH1 0x3 DUP2 GT ISZERO PUSH2 0x99D JUMPI PUSH2 0x99D PUSH2 0xED5 JUMP JUMPDEST EQ PUSH2 0x9E1 JUMPI PUSH1 0x40 MLOAD PUSH3 0x461BCD PUSH1 0xE5 SHL DUP2 MSTORE PUSH1 0x20 PUSH1 0x4 DUP3 ADD MSTORE PUSH1 0x14 PUSH1 0x24 DUP3 ADD MSTORE PUSH20 0x52696465206E6F7420696E2070726F6772657373 PUSH1 0x60 SHL PUSH1 0x44 DUP3 ADD MSTORE PUSH1 0x64 ADD PUSH2 0x4A9 JUMP JUMPDEST PUSH1 0x4 DUP2 ADD SLOAD PUSH1 0xFF AND ISZERO PUSH2 0xA2F JUMPI PUSH1 0x40 MLOAD PUSH3 0x461BCD PUSH1 0xE5 SHL DUP2 MSTORE PUSH1 0x20 PUSH1 0x4 DUP3 ADD MSTORE PUSH1 0x16 PUSH1 0x24 DUP3 ADD MSTORE PUSH22 0x149A591948185B1C9958591E4818DBDB5C1B195D1959 PUSH1 0x52 SHL PUSH1 0x44 DUP3 ADD MSTORE PUSH1 0x64 ADD PUSH2 0x4A9 JUMP JUMPDEST PUSH1 0x4 DUP2 ADD DUP1 SLOAD PUSH2 0xFFFF NOT AND PUSH2 0x201 OR SWAP1 SSTORE PUSH1 0x1 DUP2 ADD SLOAD PUSH1 0x3 DUP3 ADD SLOAD PUSH1 0x40 MLOAD PUSH1 0x1 PUSH1 0x1 PUSH1 0xA0 SHL SUB SWAP1 SWAP3 AND SWAP2 DUP2 ISZERO PUSH2 0x8FC MUL SWAP2 SWAP1 PUSH1 0x0 DUP2 DUP2 DUP2 DUP6 DUP9 DUP9 CALL SWAP4 POP POP POP POP ISZERO DUP1 ISZERO PUSH2 0xA80 JUMPI RETURNDATASIZE PUSH1 0x0 DUP1 RETURNDATACOPY RETURNDATASIZE PUSH1 0x0 REVERT JUMPDEST POP DUP2 PUSH32 0xF304FDF4AB42D89945D17E18ACBB7CEB5BD172BE70A8FF8C9F055579A4EDA101 TIMESTAMP PUSH1 0x40 MLOAD PUSH2 0x782 SWAP2 DUP2 MSTORE PUSH1 0x20 ADD SWAP1 JUMP JUMPDEST PUSH1 0x0 DUP2 DUP2 MSTORE PUSH1 0x20 DUP2 SWAP1 MSTORE PUSH1 0x40 SWAP1 KECCAK256 DUP1 SLOAD PUSH1 0x1 PUSH1 0x1 PUSH1 0xA0 SHL SUB AND PUSH2 0xB0E JUMPI PUSH1 0x40 MLOAD PUSH3 0x461BCD PUSH1 0xE5 SHL DUP2 MSTORE PUSH1 0x20 PUSH1 0x4 DUP3 ADD MSTORE PUSH1 0x13 PUSH1 0x24 DUP3 ADD MSTORE PUSH19 0x149A591948191BD95CC81B9BDD08195E1A5CDD PUSH1 0x6A SHL PUSH1 0x44 DUP3 ADD MSTORE PUSH1 0x64 ADD PUSH2 0x4A9 JUMP JUMPDEST PUSH1 0x0 PUSH1 0x4 DUP3 ADD SLOAD PUSH2 0x100 SWAP1 DIV PUSH1 0xFF AND PUSH1 0x3 DUP2 GT ISZERO PUSH2 0xB2E JUMPI PUSH2 0xB2E PUSH2 0xED5 JUMP JUMPDEST EQ PUSH2 0xB70 JUMPI PUSH1 0x40 MLOAD PUSH3 0x461BCD PUSH1 0xE5 SHL DUP2 MSTORE PUSH1 0x20 PUSH1 0x4 DUP3 ADD MSTORE PUSH1 0x12 PUSH1 0x24 DUP3 ADD MSTORE PUSH18 0x52696465206E6F7420617661696C61626C65 PUSH1 0x70 SHL PUSH1 0x44 DUP3 ADD MSTORE PUSH1 0x64 ADD PUSH2 0x4A9 JUMP JUMPDEST PUSH1 0x1 DUP2 ADD SLOAD PUSH1 0x1 PUSH1 0x1 PUSH1 0xA0 SHL SUB AND ISZERO PUSH2 0xBC3 JUMPI PUSH1 0x40 MLOAD PUSH3 0x461BCD PUSH1 0xE5 SHL DUP2 MSTORE PUSH1 0x20 PUSH1 0x4 DUP3 ADD MSTORE PUSH1 0x15 PUSH1 0x24 DUP3 ADD MSTORE PUSH21 0x149A591948185B1C9958591E48185CDCDA59DB9959 PUSH1 0x5A SHL PUSH1 0x44 DUP3 ADD MSTORE PUSH1 0x64 ADD PUSH2 0x4A9 JUMP JUMPDEST DUP1 SLOAD PUSH1 0x1 PUSH1 0x1 PUSH1 0xA0 SHL SUB AND CALLER SUB PUSH2 0xC1C JUMPI PUSH1 0x40 MLOAD PUSH3 0x461BCD PUSH1 0xE5 SHL DUP2 MSTORE PUSH1 0x20 PUSH1 0x4 DUP3 ADD MSTORE PUSH1 0x1A PUSH1 0x24 DUP3 ADD MSTORE PUSH32 0x50617373656E6765722063616E6E6F7420626520647269766572000000000000 PUSH1 0x44 DUP3 ADD MSTORE PUSH1 0x64 ADD PUSH2 0x4A9 JUMP JUMPDEST PUSH1 0x1 DUP1 DUP3 ADD DUP1 SLOAD PUSH1 0x1 PUSH1 0x1 PUSH1 0xA0 SHL SUB NOT AND CALLER OR SWAP1 SSTORE PUSH1 0x4 DUP3 ADD DUP1 SLOAD PUSH2 0xFF00 NOT AND PUSH2 0x100 DUP4 MUL OR SWAP1 SSTORE POP PUSH1 0x40 MLOAD TIMESTAMP DUP2 MSTORE CALLER SWAP1 DUP4 SWAP1 PUSH32 0x44D2438F8C7773102E178FDE6E6E3F82515D4F80C38C5A1E5F36BCB01F6322F1 SWAP1 PUSH1 0x20 ADD PUSH1 0x40 MLOAD DUP1 SWAP2 SUB SWAP1 LOG3 POP POP JUMP JUMPDEST PUSH1 0x60 PUSH1 0x0 PUSH1 0x1 SLOAD PUSH8 0xFFFFFFFFFFFFFFFF DUP2 GT ISZERO PUSH2 0xC9F JUMPI PUSH2 0xC9F PUSH2 0xF8F JUMP JUMPDEST PUSH1 0x40 MLOAD SWAP1 DUP1 DUP3 MSTORE DUP1 PUSH1 0x20 MUL PUSH1 0x20 ADD DUP3 ADD PUSH1 0x40 MSTORE DUP1 ISZERO PUSH2 0xCC8 JUMPI DUP2 PUSH1 0x20 ADD PUSH1 0x20 DUP3 MUL DUP1 CALLDATASIZE DUP4 CALLDATACOPY ADD SWAP1 POP JUMPDEST POP SWAP1 POP PUSH1 0x0 PUSH1 0x1 JUMPDEST PUSH1 0x1 SLOAD DUP2 GT PUSH2 0xDB7 JUMPI PUSH1 0x0 DUP2 DUP2 MSTORE PUSH1 0x20 DUP2 SWAP1 MSTORE PUSH1 0x40 SWAP1 KECCAK256 SLOAD PUSH1 0x1 PUSH1 0x1 PUSH1 0xA0 SHL SUB AND ISZERO DUP1 ISZERO SWAP1 PUSH2 0xD3E JUMPI POP PUSH1 0x0 DUP2 DUP2 MSTORE PUSH1 0x20 DUP2 SWAP1 MSTORE PUSH1 0x40 SWAP1 KECCAK256 SLOAD PUSH1 0x1 PUSH1 0x1 PUSH1 0xA0 SHL SUB DUP7 DUP2 AND SWAP2 AND EQ DUP1 PUSH2 0xD3E JUMPI POP PUSH1 0x0 DUP2 DUP2 MSTORE PUSH1 0x20 DUP2 SWAP1 MSTORE PUSH1 0x40 SWAP1 KECCAK256 PUSH1 0x1 ADD SLOAD PUSH1 0x1 PUSH1 0x1 PUSH1 0xA0 SHL SUB DUP7 DUP2 AND SWAP2 AND EQ JUMPDEST DUP1 ISZERO PUSH2 0xD74 JUMPI POP PUSH1 0x2 PUSH1 0x0 DUP3 DUP2 MSTORE PUSH1 0x20 DUP2 SWAP1 MSTORE PUSH1 0x40 SWAP1 KECCAK256 PUSH1 0x4 ADD SLOAD PUSH2 0x100 SWAP1 DIV PUSH1 0xFF AND PUSH1 0x3 DUP2 GT ISZERO PUSH2 0xD72 JUMPI PUSH2 0xD72 PUSH2 0xED5 JUMP JUMPDEST EQ JUMPDEST ISZERO PUSH2 0xDA5 JUMPI DUP1 DUP4 DUP4 DUP2 MLOAD DUP2 LT PUSH2 0xD8C JUMPI PUSH2 0xD8C PUSH2 0xFA5 JUMP JUMPDEST PUSH1 0x20 SWAP1 DUP2 MUL SWAP2 SWAP1 SWAP2 ADD ADD MSTORE DUP2 PUSH2 0xDA1 DUP2 PUSH2 0xFBB JUMP JUMPDEST SWAP3 POP POP JUMPDEST DUP1 PUSH2 0xDAF DUP2 PUSH2 0xFBB JUMP JUMPDEST SWAP2 POP POP PUSH2 0xCD0 JUMP JUMPDEST POP PUSH1 0x0 DUP2 PUSH8 0xFFFFFFFFFFFFFFFF DUP2 GT ISZERO PUSH2 0xDD3 JUMPI PUSH2 0xDD3 PUSH2 0xF8F JUMP JUMPDEST PUSH1 0x40 MLOAD SWAP1 DUP1 DUP3 MSTORE DUP1 PUSH1 0x20 MUL PUSH1 0x20 ADD DUP3 ADD PUSH1 0x40 MSTORE DUP1 ISZERO PUSH2 0xDFC JUMPI DUP2 PUSH1 0x20 ADD PUSH1 0x20 DUP3 MUL DUP1 CALLDATASIZE DUP4 CALLDATACOPY ADD SWAP1 POP JUMPDEST POP SWAP1 POP PUSH1 0x0 JUMPDEST DUP3 DUP2 LT ISZERO PUSH2 0x453 JUMPI DUP4 DUP2 DUP2 MLOAD DUP2 LT PUSH2 0xE1C JUMPI PUSH2 0xE1C PUSH2 0xFA5 JUMP JUMPDEST PUSH1 0x20 MUL PUSH1 0x20 ADD ADD MLOAD DUP3 DUP3 DUP2 MLOAD DUP2 LT PUSH2 0xE36 JUMPI PUSH2 0xE36 PUSH2 0xFA5 JUMP JUMPDEST PUSH1 0x20 SWAP1 DUP2 MUL SWAP2 SWAP1 SWAP2 ADD ADD MSTORE PUSH1 0x1 ADD PUSH2 0xE02 JUMP JUMPDEST PUSH1 0x0 PUSH1 0x20 DUP3 DUP5 SUB SLT ISZERO PUSH2 0xE5B JUMPI PUSH1 0x0 DUP1 REVERT JUMPDEST DUP2 CALLDATALOAD PUSH1 0x1 PUSH1 0x1 PUSH1 0xA0 SHL SUB DUP2 AND DUP2 EQ PUSH2 0xE72 JUMPI PUSH1 0x0 DUP1 REVERT JUMPDEST SWAP4 SWAP3 POP POP POP JUMP JUMPDEST PUSH1 0x20 DUP1 DUP3 MSTORE DUP3 MLOAD DUP3 DUP3 ADD DUP2 SWAP1 MSTORE PUSH1 0x0 SWAP2 DUP5 ADD SWAP1 PUSH1 0x40 DUP5 ADD SWAP1 DUP4 JUMPDEST DUP2 DUP2 LT ISZERO PUSH2 0xEB1 JUMPI DUP4 MLOAD DUP4 MSTORE PUSH1 0x20 SWAP4 DUP5 ADD SWAP4 SWAP1 SWAP3 ADD SWAP2 PUSH1 0x1 ADD PUSH2 0xE93 JUMP JUMPDEST POP SWAP1 SWAP6 SWAP5 POP POP POP POP POP JUMP JUMPDEST PUSH1 0x0 PUSH1 0x20 DUP3 DUP5 SUB SLT ISZERO PUSH2 0xECE JUMPI PUSH1 0x0 DUP1 REVERT JUMPDEST POP CALLDATALOAD SWAP2 SWAP1 POP JUMP JUMPDEST PUSH4 0x4E487B71 PUSH1 0xE0 SHL PUSH1 0x0 MSTORE PUSH1 0x21 PUSH1 0x4 MSTORE PUSH1 0x24 PUSH1 0x0 REVERT JUMPDEST PUSH1 0x4 DUP2 LT PUSH2 0xF09 JUMPI PUSH4 0x4E487B71 PUSH1 0xE0 SHL PUSH1 0x0 MSTORE PUSH1 0x21 PUSH1 0x4 MSTORE PUSH1 0x24 PUSH1 0x0 REVERT JUMPDEST SWAP1 MSTORE JUMP JUMPDEST PUSH1 0x1 PUSH1 0x1 PUSH1 0xA0 SHL SUB DUP8 DUP2 AND DUP3 MSTORE DUP7 AND PUSH1 0x20 DUP3 ADD MSTORE PUSH1 0x40 DUP2 ADD DUP6 SWAP1 MSTORE PUSH1 0x60 DUP2 ADD DUP5 SWAP1 MSTORE DUP3 ISZERO ISZERO PUSH1 0x80 DUP3 ADD MSTORE PUSH1 0xC0 DUP2 ADD PUSH2 0xF48 PUSH1 0xA0 DUP4 ADD DUP5 PUSH2 0xEEB JUMP JUMPDEST SWAP8 SWAP7 POP POP POP POP POP POP POP JUMP JUMPDEST PUSH1 0x1 PUSH1 0x1 PUSH1 0xA0 SHL SUB DUP7 DUP2 AND DUP3 MSTORE DUP6 AND PUSH1 0x20 DUP3 ADD MSTORE PUSH1 0x40 DUP2 ADD DUP5 SWAP1 MSTORE PUSH1 0xA0 DUP2 ADD PUSH2 0xF7F PUSH1 0x60 DUP4 ADD DUP6 PUSH2 0xEEB JUMP JUMPDEST DUP3 PUSH1 0x80 DUP4 ADD MSTORE SWAP7 SWAP6 POP POP POP POP POP POP JUMP JUMPDEST PUSH4 0x4E487B71 PUSH1 0xE0 SHL PUSH1 0x0 MSTORE PUSH1 0x41 PUSH1 0x4 MSTORE PUSH1 0x24 PUSH1 0x0 REVERT JUMPDEST PUSH4 0x4E487B71 PUSH1 0xE0 SHL PUSH1 0x0 MSTORE PUSH1 0x32 PUSH1 0x4 MSTORE PUSH1 0x24 PUSH1 0x0 REVERT JUMPDEST PUSH1 0x0 PUSH1 0x1 DUP3 ADD PUSH2 0xFDB JUMPI PUSH4 0x4E487B71 PUSH1 0xE0 SHL PUSH1 0x0 MSTORE PUSH1 0x11 PUSH1 0x4 MSTORE PUSH1 0x24 PUSH1 0x0 REVERT JUMPDEST POP PUSH1 0x1 ADD SWAP1 JUMP INVALID LOG2 PUSH5 0x6970667358 0x22 SLT KECCAK256 0xD6 PUSH14 0x89A10D6178155665B96294F0966F 0xF EXTCODEHASH CALLCODE 0xD3 DUP4 PUSH24 0x4C4423FD5C83C021F6864736F6C634300081C0033000000 ",
  "sha1": "13f7d7c10ea4f7646094f1b6709e3208196fe8b1",
  "source": "// SPDX-License-Identifier: MIT\npragma solidity ^0.8.0;\n\ncontract RideSharing {\n    struct Ride {\n        address passenger;\n        address driver;\n        uint256 distance;\n        uint256 fare;\n        bool completed;\n        RideStatus status;\n    }\n\n    enum RideStatus { REQUESTED, ACCEPTED, COMPLETED, CANCELLED }\n\n    mapping(uint256 => Ride) public rides;\n    uint256 public rideCount;\n\n    // Events with indexed parameters for better filtering\n    event RideRequested(\n        uint256 indexed rideId,\n        address indexed passenger,\n        address indexed driver,\n        uint256 distance,\n        uint256 fare\n    );\n    event RideAccepted(uint256 indexed rideId, address indexed driver, uint256 timestamp);\n    event RideCompleted(uint256 indexed rideId, uint256 timestamp);\n    event RideCancelled(uint256 indexed rideId, uint256 timestamp);\n    event DebugRideStatus(uint256 indexed rideId, RideStatus status, address indexed user);\n\n    function requestRide(uint256 distance) public payable returns (uint256) {\n        require(msg.value > 0, \"Fare must be greater than 0\");\n        require(distance > 0, \"Distance must be greater than 0\");\n        \n        rideCount++;\n        rides[rideCount] = Ride({\n            passenger: msg.sender,\n            driver: address(0),\n            distance: distance,\n            fare: msg.value,\n            completed: false,\n            status: RideStatus.REQUESTED\n        });\n\n        // Emit event with all relevant information\n        emit RideRequested(\n            rideCount,\n            msg.sender,\n            address(0),\n            distance,\n            msg.value\n        );\n        \n        return rideCount;\n    }\n\n    function acceptRide(uint256 rideId) public {\n        Ride storage ride = rides[rideId];\n        require(ride.passenger != address(0), \"Ride does not exist\");\n        require(ride.status == RideStatus.REQUESTED, \"Ride not available\");\n        require(ride.driver == address(0), \"Ride already assigned\");\n        require(msg.sender != ride.passenger, \"Passenger cannot be driver\");\n\n        ride.driver = msg.sender;\n        ride.status = RideStatus.ACCEPTED;\n\n        emit RideAccepted(rideId, msg.sender, block.timestamp);\n    }\n\n    function completeRide(uint256 rideId) public {\n        Ride storage ride = rides[rideId];\n        require(msg.sender == ride.driver, \"Only driver can complete ride\");\n        require(ride.status == RideStatus.ACCEPTED, \"Ride not in progress\");\n        require(!ride.completed, \"Ride already completed\");\n\n        ride.completed = true;\n        ride.status = RideStatus.COMPLETED;\n        payable(ride.driver).transfer(ride.fare);\n\n        emit RideCompleted(rideId, block.timestamp);\n    }\n\n    function cancelRide(uint256 rideId) public {\n        Ride storage ride = rides[rideId];\n        require(msg.sender == ride.passenger, \"Only passenger can cancel\");\n        require(ride.status == RideStatus.REQUESTED, \"Can only cancel requested rides\");\n\n        ride.status = RideStatus.CANCELLED;\n        payable(ride.passenger).transfer(ride.fare);\n\n        emit RideCancelled(rideId, block.timestamp);\n    }\n\n    function getUserCompletedRides(address user) public view returns (uint256[] memory) {\n        uint256[] memory completedRides = new uint256[](rideCount);\n        uint256 count = 0;\n\n        for (uint256 i = 1; i <= rideCount; i++) {\n            // Debugging events removed\n            if (rides[i].passenger != address(0) &&\n                (rides[i].passenger == user || rides[i].driver == user) &&\n                rides[i].status == RideStatus.COMPLETED) {\n                completedRides[count] = i;\n                count++;\n            }\n        }\n\n        uint256[] memory result = new uint256[](count);\n        for (uint256 i = 0; i < count; i++) {\n            result[i] = completedRides[i];\n        }\n\n        return result;\n    }\n\n\n    function getAvailableRides() public view returns (uint256[] memory) {\n        uint256[] memory availableRides = new uint256[](rideCount);\n        uint256 count = 0;\n        \n        for (uint256 i = 1; i <= rideCount; i++) {\n            if (rides[i].passenger != address(0) && // Ensure ride exists\n                rides[i].status == RideStatus.REQUESTED) {\n                availableRides[count] = i;\n                count++;\n            }\n        }\n        \n        uint256[] memory result = new uint256[](count);\n        for (uint256 i = 0; i < count; i++) {\n            result[i] = availableRides[i];\n        }\n        \n        return result;\n    }\n\n    function getUserActiveRides(address user) public view returns (uint256[] memory) {\n        uint256[] memory activeRides = new uint256[](rideCount);\n        uint256 count = 0;\n        \n        for (uint256 i = 1; i <= rideCount; i++) {\n            if (rides[i].passenger != address(0) && // Ensure ride exists\n                (rides[i].passenger == user || rides[i].driver == user) &&\n                rides[i].status == RideStatus.ACCEPTED) {\n                activeRides[count] = i;\n                count++;\n            }\n        }\n        \n        uint256[] memory result = new uint256[](count);\n        for (uint256 i = 0; i < count; i++) {\n            result[i] = activeRides[i];\n        }\n        \n        return result;\n    }\n\n    function getRide(uint256 rideId) public view returns (\n        address passenger,\n        address driver,\n        uint256 distance,\n        RideStatus status,\n        uint256 fare\n    ) {\n        Ride storage ride = rides[rideId];\n        return (\n            ride.passenger,\n            ride.driver,\n            ride.distance,\n            ride.status,\n            ride.fare\n        );\n    }\n\n    receive() external payable {}\n}\n",
  "sourcePath": "contracts/RideSharing.sol",
  "type": "contract"
}