{
  "contractName": "RideSharing",
  "abi": [
    {
      "anonymous": false,
      "inputs": [
        {
          "indexed": true,
          "internalType": "uint256",
          "name": "rideId",
          "type": "uint256"
        },
        {
          "indexed": false,
          "internalType": "enum RideSharing.RideStatus",
          "name": "status",
          "type": "uint8"
        },
        {
          "indexed": true,
          "internalType": "address",
          "name": "user",
          "type": "address"
        }
      ],
      "name": "DebugRideStatus",
      "type": "event"
    },
    {
      "anonymous": false,
      "inputs": [
        {
          "indexed": true,
          "internalType": "uint256",
          "name": "rideId",
          "type": "uint256"
        },
        {
          "indexed": true,
          "internalType": "address",
          "name": "driver",
          "type": "address"
        },
        {
          "indexed": false,
          "internalType": "uint256",
          "name": "timestamp",
          "type": "uint256"
        }
      ],
      "name": "RideAccepted",
      "type": "event"
    },
    {
      "anonymous": false,
      "inputs": [
        {
          "indexed": true,
          "internalType": "uint256",
          "name": "rideId",
          "type": "uint256"
        },
        {
          "indexed": false,
          "internalType": "uint256",
          "name": "timestamp",
          "type": "uint256"
        }
      ],
      "name": "RideCancelled",
      "type": "event"
    },
    {
      "anonymous": false,
      "inputs": [
        {
          "indexed": true,
          "internalType": "uint256",
          "name": "rideId",
          "type": "uint256"
        },
        {
          "indexed": false,
          "internalType": "uint256",
          "name": "timestamp",
          "type": "uint256"
        }
      ],
      "name": "RideCompleted",
      "type": "event"
    },
    {
      "anonymous": false,
      "inputs": [
        {
          "indexed": true,
          "internalType": "uint256",
          "name": "rideId",
          "type": "uint256"
        },
        {
          "indexed": true,
          "internalType": "address",
          "name": "passenger",
          "type": "address"
        },
        {
          "indexed": true,
          "internalType": "address",
          "name": "driver",
          "type": "address"
        },
        {
          "indexed": false,
          "internalType": "uint256",
          "name": "distance",
          "type": "uint256"
        },
        {
          "indexed": false,
          "internalType": "uint256",
          "name": "fare",
          "type": "uint256"
        }
      ],
      "name": "RideRequested",
      "type": "event"
    },
    {
      "inputs": [],
      "name": "rideCount",
      "outputs": [
        {
          "internalType": "uint256",
          "name": "",
          "type": "uint256"
        }
      ],
      "stateMutability": "view",
      "type": "function",
      "constant": true
    },
    {
      "inputs": [
        {
          "internalType": "uint256",
          "name": "",
          "type": "uint256"
        }
      ],
      "name": "rides",
      "outputs": [
        {
          "internalType": "address",
          "name": "passenger",
          "type": "address"
        },
        {
          "internalType": "address",
          "name": "driver",
          "type": "address"
        },
        {
          "internalType": "uint256",
          "name": "distance",
          "type": "uint256"
        },
        {
          "internalType": "uint256",
          "name": "fare",
          "type": "uint256"
        },
        {
          "internalType": "bool",
          "name": "completed",
          "type": "bool"
        },
        {
          "internalType": "enum RideSharing.RideStatus",
          "name": "status",
          "type": "uint8"
        }
      ],
      "stateMutability": "view",
      "type": "function",
      "constant": true
    },
    {
      "stateMutability": "payable",
      "type": "receive",
      "payable": true
    },
    {
      "inputs": [
        {
          "internalType": "uint256",
          "name": "distance",
          "type": "uint256"
        }
      ],
      "name": "requestRide",
      "outputs": [
        {
          "internalType": "uint256",
          "name": "",
          "type": "uint256"
        }
      ],
      "stateMutability": "payable",
      "type": "function",
      "payable": true
    },
    {
      "inputs": [
        {
          "internalType": "uint256",
          "name": "rideId",
          "type": "uint256"
        }
      ],
      "name": "acceptRide",
      "outputs": [],
      "stateMutability": "nonpayable",
      "type": "function"
    },
    {
      "inputs": [
        {
          "internalType": "uint256",
          "name": "rideId",
          "type": "uint256"
        }
      ],
      "name": "completeRide",
      "outputs": [],
      "stateMutability": "nonpayable",
      "type": "function"
    },
    {
      "inputs": [
        {
          "internalType": "uint256",
          "name": "rideId",
          "type": "uint256"
        }
      ],
      "name": "cancelRide",
      "outputs": [],
      "stateMutability": "nonpayable",
      "type": "function"
    },
    {
      "inputs": [
        {
          "internalType": "address",
          "name": "user",
          "type": "address"
        }
      ],
      "name": "getUserCompletedRides",
      "outputs": [
        {
          "internalType": "uint256[]",
          "name": "",
          "type": "uint256[]"
        }
      ],
      "stateMutability": "view",
      "type": "function",
      "constant": true
    },
    {
      "inputs": [],
      "name": "getAvailableRides",
      "outputs": [
        {
          "internalType": "uint256[]",
          "name": "",
          "type": "uint256[]"
        }
      ],
      "stateMutability": "view",
      "type": "function",
      "constant": true
    },
    {
      "inputs": [
        {
          "internalType": "address",
          "name": "user",
          "type": "address"
        }
      ],
      "name": "getUserActiveRides",
      "outputs": [
        {
          "internalType": "uint256[]",
          "name": "",
          "type": "uint256[]"
        }
      ],
      "stateMutability": "view",
      "type": "function",
      "constant": true
    },
    {
      "inputs": [
        {
          "internalType": "uint256",
          "name": "rideId",
          "type": "uint256"
        }
      ],
      "name": "getRide",
      "outputs": [
        {
          "internalType": "address",
          "name": "passenger",
          "type": "address"
        },
        {
          "internalType": "address",
          "name": "driver",
          "type": "address"
        },
        {
          "internalType": "uint256",
          "name": "distance",
          "type": "uint256"
        },
        {
          "internalType": "enum RideSharing.RideStatus",
          "name": "status",
          "type": "uint8"
        },
        {
          "internalType": "uint256",
          "name": "fare",
          "type": "uint256"
        }
      ],
      "stateMutability": "view",
      "type": "function",
      "constant": true
    }
  ],
  "bytecode": "0x608060405234801561000f575f80fd5b50611e178061001d5f395ff3fe608060405260043610610094575f3560e01c8063a9cbcb2311610058578063a9cbcb23146101b4578063b47c1883146101de578063c416dd0b14610208578063c51562cb14610230578063f1021857146102585761009b565b806342f675881461009f5780635205f112146100db5780637c7b0ff41461011c5780639327b0771461015c578063a6f07b291461018c5761009b565b3661009b57005b5f80fd5b3480156100aa575f80fd5b506100c560048036038101906100c09190611590565b610294565b6040516100d2919061167b565b60405180910390f35b3480156100e6575f80fd5b5061010160048036038101906100fc91906116c5565b61056c565b6040516101139695949392919061179b565b60405180910390f35b348015610127575f80fd5b50610142600480360381019061013d91906116c5565b6105fa565b6040516101539594939291906117fa565b60405180910390f35b610176600480360381019061017191906116c5565b610689565b604051610183919061184b565b60405180910390f35b348015610197575f80fd5b506101b260048036038101906101ad91906116c5565b610908565b005b3480156101bf575f80fd5b506101c8610af5565b6040516101d5919061167b565b60405180910390f35b3480156101e9575f80fd5b506101f2610cfa565b6040516101ff919061184b565b60405180910390f35b348015610213575f80fd5b5061022e600480360381019061022991906116c5565b610d00565b005b34801561023b575f80fd5b50610256600480360381019061025191906116c5565b610f5d565b005b348015610263575f80fd5b5061027e60048036038101906102799190611590565b61125a565b60405161028b919061167b565b60405180910390f35b60605f60015467ffffffffffffffff8111156102b3576102b2611864565b5b6040519080825280602002602001820160405280156102e15781602001602082028036833780820191505090505b5090505f80600190505b60015481116104bc575f73ffffffffffffffffffffffffffffffffffffffff165f808381526020019081526020015f205f015f9054906101000a900473ffffffffffffffffffffffffffffffffffffffff1673ffffffffffffffffffffffffffffffffffffffff161415801561042557508473ffffffffffffffffffffffffffffffffffffffff165f808381526020019081526020015f205f015f9054906101000a900473ffffffffffffffffffffffffffffffffffffffff1673ffffffffffffffffffffffffffffffffffffffff16148061042457508473ffffffffffffffffffffffffffffffffffffffff165f808381526020019081526020015f206001015f9054906101000a900473ffffffffffffffffffffffffffffffffffffffff1673ffffffffffffffffffffffffffffffffffffffff16145b5b80156104755750600160038111156104405761043f611728565b5b5f808381526020019081526020015f2060040160019054906101000a900460ff16600381111561047357610472611728565b5b145b156104a9578083838151811061048e5761048d611891565b5b60200260200101818152505081806104a5906118eb565b9250505b80806104b4906118eb565b9150506102eb565b505f8167ffffffffffffffff8111156104d8576104d7611864565b5b6040519080825280602002602001820160405280156105065781602001602082028036833780820191505090505b5090505f5b828110156105605783818151811061052657610525611891565b5b602002602001015182828151811061054157610540611891565b5b6020026020010181815250508080610558906118eb565b91505061050b565b50809350505050919050565b5f602052805f5260405f205f91509050805f015f9054906101000a900473ffffffffffffffffffffffffffffffffffffffff1690806001015f9054906101000a900473ffffffffffffffffffffffffffffffffffffffff1690806002015490806003015490806004015f9054906101000a900460ff16908060040160019054906101000a900460ff16905086565b5f805f805f805f808881526020019081526020015f209050805f015f9054906101000a900473ffffffffffffffffffffffffffffffffffffffff16816001015f9054906101000a900473ffffffffffffffffffffffffffffffffffffffff1682600201548360040160019054906101000a900460ff168460030154955095509550955095505091939590929450565b5f8034116106cc576040517f08c379a00000000000000000000000000000000000000000000000000000000081526004016106c39061198c565b60405180910390fd5b5f821161070e576040517f08c379a0000000000000000000000000000000000000000000000000000000008152600401610705906119f4565b60405180910390fd5b60015f815480929190610720906118eb565b91905055506040518060c001604052803373ffffffffffffffffffffffffffffffffffffffff1681526020015f73ffffffffffffffffffffffffffffffffffffffff1681526020018381526020013481526020015f151581526020015f600381111561078f5761078e611728565b5b8152505f8060015481526020019081526020015f205f820151815f015f6101000a81548173ffffffffffffffffffffffffffffffffffffffff021916908373ffffffffffffffffffffffffffffffffffffffff1602179055506020820151816001015f6101000a81548173ffffffffffffffffffffffffffffffffffffffff021916908373ffffffffffffffffffffffffffffffffffffffff16021790555060408201518160020155606082015181600301556080820151816004015f6101000a81548160ff02191690831515021790555060a08201518160040160016101000a81548160ff0219169083600381111561088c5761088b611728565b5b02179055509050505f73ffffffffffffffffffffffffffffffffffffffff163373ffffffffffffffffffffffffffffffffffffffff166001547fe09aa379f15bc62a258da69b77153d1f5f5c28f544e8f97476c7d871f2c63a9285346040516108f6929190611a12565b60405180910390a46001549050919050565b5f805f8381526020019081526020015f209050805f015f9054906101000a900473ffffffffffffffffffffffffffffffffffffffff1673ffffffffffffffffffffffffffffffffffffffff163373ffffffffffffffffffffffffffffffffffffffff16146109ab576040517f08c379a00000000000000000000000000000000000000000000000000000000081526004016109a290611a83565b60405180910390fd5b5f60038111156109be576109bd611728565b5b8160040160019054906101000a900460ff1660038111156109e2576109e1611728565b5b14610a22576040517f08c379a0000000000000000000000000000000000000000000000000000000008152600401610a1990611aeb565b60405180910390fd5b60038160040160016101000a81548160ff02191690836003811115610a4a57610a49611728565b5b0217905550805f015f9054906101000a900473ffffffffffffffffffffffffffffffffffffffff1673ffffffffffffffffffffffffffffffffffffffff166108fc826003015490811502906040515f60405180830381858888f19350505050158015610ab8573d5f803e3d5ffd5b50817f122ec9117631988058d7593682e1e373e7a97ee87970e8457da6b2a59f31fcd542604051610ae9919061184b565b60405180910390a25050565b60605f60015467ffffffffffffffff811115610b1457610b13611864565b5b604051908082528060200260200182016040528015610b425781602001602082028036833780820191505090505b5090505f80600190505b6001548111610c4c575f73ffffffffffffffffffffffffffffffffffffffff165f808381526020019081526020015f205f015f9054906101000a900473ffffffffffffffffffffffffffffffffffffffff1673ffffffffffffffffffffffffffffffffffffffff1614158015610c0557505f6003811115610bd057610bcf611728565b5b5f808381526020019081526020015f2060040160019054906101000a900460ff166003811115610c0357610c02611728565b5b145b15610c395780838381518110610c1e57610c1d611891565b5b6020026020010181815250508180610c35906118eb565b9250505b8080610c44906118eb565b915050610b4c565b505f8167ffffffffffffffff811115610c6857610c67611864565b5b604051908082528060200260200182016040528015610c965781602001602082028036833780820191505090505b5090505f5b82811015610cf057838181518110610cb657610cb5611891565b5b6020026020010151828281518110610cd157610cd0611891565b5b6020026020010181815250508080610ce8906118eb565b915050610c9b565b5080935050505090565b60015481565b5f805f8381526020019081526020015f209050806001015f9054906101000a900473ffffffffffffffffffffffffffffffffffffffff1673ffffffffffffffffffffffffffffffffffffffff163373ffffffffffffffffffffffffffffffffffffffff1614610da4576040517f08c379a0000000000000000000000000000000000000000000000000000000008152600401610d9b90611b53565b60405180910390fd5b60016003811115610db857610db7611728565b5b8160040160019054906101000a900460ff166003811115610ddc57610ddb611728565b5b14610e1c576040517f08c379a0000000000000000000000000000000000000000000000000000000008152600401610e1390611bbb565b60405180910390fd5b806004015f9054906101000a900460ff1615610e6d576040517f08c379a0000000000000000000000000000000000000000000000000000000008152600401610e6490611c23565b60405180910390fd5b6001816004015f6101000a81548160ff02191690831515021790555060028160040160016101000a81548160ff02191690836003811115610eb157610eb0611728565b5b0217905550806001015f9054906101000a900473ffffffffffffffffffffffffffffffffffffffff1673ffffffffffffffffffffffffffffffffffffffff166108fc826003015490811502906040515f60405180830381858888f19350505050158015610f20573d5f803e3d5ffd5b50817ff304fdf4ab42d89945d17e18acbb7ceb5bd172be70a8ff8c9f055579a4eda10142604051610f51919061184b565b60405180910390a25050565b5f805f8381526020019081526020015f2090505f73ffffffffffffffffffffffffffffffffffffffff16815f015f9054906101000a900473ffffffffffffffffffffffffffffffffffffffff1673ffffffffffffffffffffffffffffffffffffffff1603611000576040517f08c379a0000000000000000000000000000000000000000000000000000000008152600401610ff790611c8b565b60405180910390fd5b5f600381111561101357611012611728565b5b8160040160019054906101000a900460ff16600381111561103757611036611728565b5b14611077576040517f08c379a000000000000000000000000000000000000000000000000000000000815260040161106e90611cf3565b60405180910390fd5b5f73ffffffffffffffffffffffffffffffffffffffff16816001015f9054906101000a900473ffffffffffffffffffffffffffffffffffffffff1673ffffffffffffffffffffffffffffffffffffffff1614611108576040517f08c379a00000000000000000000000000000000000000000000000000000000081526004016110ff90611d5b565b60405180910390fd5b805f015f9054906101000a900473ffffffffffffffffffffffffffffffffffffffff1673ffffffffffffffffffffffffffffffffffffffff163373ffffffffffffffffffffffffffffffffffffffff1603611198576040517f08c379a000000000000000000000000000000000000000000000000000000000815260040161118f90611dc3565b60405180910390fd5b33816001015f6101000a81548173ffffffffffffffffffffffffffffffffffffffff021916908373ffffffffffffffffffffffffffffffffffffffff16021790555060018160040160016101000a81548160ff0219169083600381111561120257611201611728565b5b02179055503373ffffffffffffffffffffffffffffffffffffffff16827f44d2438f8c7773102e178fde6e6e3f82515d4f80c38c5a1e5f36bcb01f6322f14260405161124e919061184b565b60405180910390a35050565b60605f60015467ffffffffffffffff81111561127957611278611864565b5b6040519080825280602002602001820160405280156112a75781602001602082028036833780820191505090505b5090505f80600190505b6001548111611482575f73ffffffffffffffffffffffffffffffffffffffff165f808381526020019081526020015f205f015f9054906101000a900473ffffffffffffffffffffffffffffffffffffffff1673ffffffffffffffffffffffffffffffffffffffff16141580156113eb57508473ffffffffffffffffffffffffffffffffffffffff165f808381526020019081526020015f205f015f9054906101000a900473ffffffffffffffffffffffffffffffffffffffff1673ffffffffffffffffffffffffffffffffffffffff1614806113ea57508473ffffffffffffffffffffffffffffffffffffffff165f808381526020019081526020015f206001015f9054906101000a900473ffffffffffffffffffffffffffffffffffffffff1673ffffffffffffffffffffffffffffffffffffffff16145b5b801561143b57506002600381111561140657611405611728565b5b5f808381526020019081526020015f2060040160019054906101000a900460ff16600381111561143957611438611728565b5b145b1561146f578083838151811061145457611453611891565b5b602002602001018181525050818061146b906118eb565b9250505b808061147a906118eb565b9150506112b1565b505f8167ffffffffffffffff81111561149e5761149d611864565b5b6040519080825280602002602001820160405280156114cc5781602001602082028036833780820191505090505b5090505f5b82811015611526578381815181106114ec576114eb611891565b5b602002602001015182828151811061150757611506611891565b5b602002602001018181525050808061151e906118eb565b9150506114d1565b50809350505050919050565b5f80fd5b5f73ffffffffffffffffffffffffffffffffffffffff82169050919050565b5f61155f82611536565b9050919050565b61156f81611555565b8114611579575f80fd5b50565b5f8135905061158a81611566565b92915050565b5f602082840312156115a5576115a4611532565b5b5f6115b28482850161157c565b91505092915050565b5f81519050919050565b5f82825260208201905092915050565b5f819050602082019050919050565b5f819050919050565b6115f6816115e4565b82525050565b5f61160783836115ed565b60208301905092915050565b5f602082019050919050565b5f611629826115bb565b61163381856115c5565b935061163e836115d5565b805f5b8381101561166e57815161165588826115fc565b975061166083611613565b925050600181019050611641565b5085935050505092915050565b5f6020820190508181035f830152611693818461161f565b905092915050565b6116a4816115e4565b81146116ae575f80fd5b50565b5f813590506116bf8161169b565b92915050565b5f602082840312156116da576116d9611532565b5b5f6116e7848285016116b1565b91505092915050565b6116f981611555565b82525050565b611708816115e4565b82525050565b5f8115159050919050565b6117228161170e565b82525050565b7f4e487b71000000000000000000000000000000000000000000000000000000005f52602160045260245ffd5b6004811061176657611765611728565b5b50565b5f81905061177682611755565b919050565b5f61178582611769565b9050919050565b6117958161177b565b82525050565b5f60c0820190506117ae5f8301896116f0565b6117bb60208301886116f0565b6117c860408301876116ff565b6117d560608301866116ff565b6117e26080830185611719565b6117ef60a083018461178c565b979650505050505050565b5f60a08201905061180d5f8301886116f0565b61181a60208301876116f0565b61182760408301866116ff565b611834606083018561178c565b61184160808301846116ff565b9695505050505050565b5f60208201905061185e5f8301846116ff565b92915050565b7f4e487b71000000000000000000000000000000000000000000000000000000005f52604160045260245ffd5b7f4e487b71000000000000000000000000000000000000000000000000000000005f52603260045260245ffd5b7f4e487b71000000000000000000000000000000000000000000000000000000005f52601160045260245ffd5b5f6118f5826115e4565b91507fffffffffffffffffffffffffffffffffffffffffffffffffffffffffffffffff8203611927576119266118be565b5b600182019050919050565b5f82825260208201905092915050565b7f46617265206d7573742062652067726561746572207468616e203000000000005f82015250565b5f611976601b83611932565b915061198182611942565b602082019050919050565b5f6020820190508181035f8301526119a38161196a565b9050919050565b7f44697374616e6365206d7573742062652067726561746572207468616e2030005f82015250565b5f6119de601f83611932565b91506119e9826119aa565b602082019050919050565b5f6020820190508181035f830152611a0b816119d2565b9050919050565b5f604082019050611a255f8301856116ff565b611a3260208301846116ff565b9392505050565b7f4f6e6c792070617373656e6765722063616e2063616e63656c000000000000005f82015250565b5f611a6d601983611932565b9150611a7882611a39565b602082019050919050565b5f6020820190508181035f830152611a9a81611a61565b9050919050565b7f43616e206f6e6c792063616e63656c20726571756573746564207269646573005f82015250565b5f611ad5601f83611932565b9150611ae082611aa1565b602082019050919050565b5f6020820190508181035f830152611b0281611ac9565b9050919050565b7f4f6e6c79206472697665722063616e20636f6d706c65746520726964650000005f82015250565b5f611b3d601d83611932565b9150611b4882611b09565b602082019050919050565b5f6020820190508181035f830152611b6a81611b31565b9050919050565b7f52696465206e6f7420696e2070726f67726573730000000000000000000000005f82015250565b5f611ba5601483611932565b9150611bb082611b71565b602082019050919050565b5f6020820190508181035f830152611bd281611b99565b9050919050565b7f5269646520616c726561647920636f6d706c65746564000000000000000000005f82015250565b5f611c0d601683611932565b9150611c1882611bd9565b602082019050919050565b5f6020820190508181035f830152611c3a81611c01565b9050919050565b7f5269646520646f6573206e6f74206578697374000000000000000000000000005f82015250565b5f611c75601383611932565b9150611c8082611c41565b602082019050919050565b5f6020820190508181035f830152611ca281611c69565b9050919050565b7f52696465206e6f7420617661696c61626c6500000000000000000000000000005f82015250565b5f611cdd601283611932565b9150611ce882611ca9565b602082019050919050565b5f6020820190508181035f830152611d0a81611cd1565b9050919050565b7f5269646520616c72656164792061737369676e656400000000000000000000005f82015250565b5f611d45601583611932565b9150611d5082611d11565b602082019050919050565b5f6020820190508181035f830152611d7281611d39565b9050919050565b7f50617373656e6765722063616e6e6f74206265206472697665720000000000005f82015250565b5f611dad601a83611932565b9150611db882611d79565b602082019050919050565b5f6020820190508181035f830152611dda81611da1565b905091905056fea264697066735822122076f272f9238df8bfd98a2ebb715018063f69e5ccb095f5845f5a07149957b46164736f6c63430008150033",
  "immutableReferences": {},
  "source": "// SPDX-License-Identifier: MIT\r\npragma solidity ^0.8.0;\r\n\r\ncontract RideSharing {\r\n    struct Ride {\r\n        address passenger;\r\n        address driver;\r\n        uint256 distance;\r\n        uint256 fare;\r\n        bool completed;\r\n        RideStatus status;\r\n    }\r\n\r\n    enum RideStatus { REQUESTED, ACCEPTED, COMPLETED, CANCELLED }\r\n\r\n    mapping(uint256 => Ride) public rides;\r\n    uint256 public rideCount;\r\n\r\n    // Events with indexed parameters for better filtering\r\n    event RideRequested(\r\n        uint256 indexed rideId,\r\n        address indexed passenger,\r\n        address indexed driver,\r\n        uint256 distance,\r\n        uint256 fare\r\n    );\r\n    event RideAccepted(uint256 indexed rideId, address indexed driver, uint256 timestamp);\r\n    event RideCompleted(uint256 indexed rideId, uint256 timestamp);\r\n    event RideCancelled(uint256 indexed rideId, uint256 timestamp);\r\n    event DebugRideStatus(uint256 indexed rideId, RideStatus status, address indexed user);\r\n\r\n    function requestRide(uint256 distance) public payable returns (uint256) {\r\n        require(msg.value > 0, \"Fare must be greater than 0\");\r\n        require(distance > 0, \"Distance must be greater than 0\");\r\n        \r\n        rideCount++;\r\n        rides[rideCount] = Ride({\r\n            passenger: msg.sender,\r\n            driver: address(0),\r\n            distance: distance,\r\n            fare: msg.value,\r\n            completed: false,\r\n            status: RideStatus.REQUESTED\r\n        });\r\n\r\n        // Emit event with all relevant information\r\n        emit RideRequested(\r\n            rideCount,\r\n            msg.sender,\r\n            address(0),\r\n            distance,\r\n            msg.value\r\n        );\r\n        \r\n        return rideCount;\r\n    }\r\n\r\n    function acceptRide(uint256 rideId) public {\r\n        Ride storage ride = rides[rideId];\r\n        require(ride.passenger != address(0), \"Ride does not exist\");\r\n        require(ride.status == RideStatus.REQUESTED, \"Ride not available\");\r\n        require(ride.driver == address(0), \"Ride already assigned\");\r\n        require(msg.sender != ride.passenger, \"Passenger cannot be driver\");\r\n\r\n        ride.driver = msg.sender;\r\n        ride.status = RideStatus.ACCEPTED;\r\n\r\n        emit RideAccepted(rideId, msg.sender, block.timestamp);\r\n    }\r\n\r\n    function completeRide(uint256 rideId) public {\r\n        Ride storage ride = rides[rideId];\r\n        require(msg.sender == ride.driver, \"Only driver can complete ride\");\r\n        require(ride.status == RideStatus.ACCEPTED, \"Ride not in progress\");\r\n        require(!ride.completed, \"Ride already completed\");\r\n\r\n        ride.completed = true;\r\n        ride.status = RideStatus.COMPLETED;\r\n        payable(ride.driver).transfer(ride.fare);\r\n\r\n        emit RideCompleted(rideId, block.timestamp);\r\n    }\r\n\r\n    function cancelRide(uint256 rideId) public {\r\n        Ride storage ride = rides[rideId];\r\n        require(msg.sender == ride.passenger, \"Only passenger can cancel\");\r\n        require(ride.status == RideStatus.REQUESTED, \"Can only cancel requested rides\");\r\n\r\n        ride.status = RideStatus.CANCELLED;\r\n        payable(ride.passenger).transfer(ride.fare);\r\n\r\n        emit RideCancelled(rideId, block.timestamp);\r\n    }\r\n\r\n    function getUserCompletedRides(address user) public view returns (uint256[] memory) {\r\n        uint256[] memory completedRides = new uint256[](rideCount);\r\n        uint256 count = 0;\r\n\r\n        for (uint256 i = 1; i <= rideCount; i++) {\r\n            // Debugging events removed\r\n            if (rides[i].passenger != address(0) &&\r\n                (rides[i].passenger == user || rides[i].driver == user) &&\r\n                rides[i].status == RideStatus.COMPLETED) {\r\n                completedRides[count] = i;\r\n                count++;\r\n            }\r\n        }\r\n\r\n        uint256[] memory result = new uint256[](count);\r\n        for (uint256 i = 0; i < count; i++) {\r\n            result[i] = completedRides[i];\r\n        }\r\n\r\n        return result;\r\n    }\r\n\r\n\r\n    function getAvailableRides() public view returns (uint256[] memory) {\r\n        uint256[] memory availableRides = new uint256[](rideCount);\r\n        uint256 count = 0;\r\n        \r\n        for (uint256 i = 1; i <= rideCount; i++) {\r\n            if (rides[i].passenger != address(0) && // Ensure ride exists\r\n                rides[i].status == RideStatus.REQUESTED) {\r\n                availableRides[count] = i;\r\n                count++;\r\n            }\r\n        }\r\n        \r\n        uint256[] memory result = new uint256[](count);\r\n        for (uint256 i = 0; i < count; i++) {\r\n            result[i] = availableRides[i];\r\n        }\r\n        \r\n        return result;\r\n    }\r\n\r\n    function getUserActiveRides(address user) public view returns (uint256[] memory) {\r\n        uint256[] memory activeRides = new uint256[](rideCount);\r\n        uint256 count = 0;\r\n        \r\n        for (uint256 i = 1; i <= rideCount; i++) {\r\n            if (rides[i].passenger != address(0) && // Ensure ride exists\r\n                (rides[i].passenger == user || rides[i].driver == user) &&\r\n                rides[i].status == RideStatus.ACCEPTED) {\r\n                activeRides[count] = i;\r\n                count++;\r\n            }\r\n        }\r\n        \r\n        uint256[] memory result = new uint256[](count);\r\n        for (uint256 i = 0; i < count; i++) {\r\n            result[i] = activeRides[i];\r\n        }\r\n        \r\n        return result;\r\n    }\r\n\r\n    function getRide(uint256 rideId) public view returns (\r\n        address passenger,\r\n        address driver,\r\n        uint256 distance,\r\n        RideStatus status,\r\n        uint256 fare\r\n    ) {\r\n        Ride storage ride = rides[rideId];\r\n        return (\r\n            ride.passenger,\r\n            ride.driver,\r\n            ride.distance,\r\n            ride.status,\r\n            ride.fare\r\n        );\r\n    }\r\n\r\n    receive() external payable {}\r\n}\r\n",
  "sourcePath": "C:\\Users\\VC\\OneDrive\\Desktop\\carpool\\contracts\\RideSharing.sol",
  "compiler": {
    "name": "solc",
    "version": "0.8.21+commit.d9974bed.Emscripten.clang"
  },
  "schemaVersion": "3.4.16",
  "updatedAt": "2024-12-24T13:44:00.552Z",
  "networkType": "ethereum",
  "devdoc": {
    "kind": "dev",
    "methods": {},
    "version": 1
  },
  "userdoc": {
    "kind": "user",
    "methods": {},
    "version": 1
  }
}